{
	"contractName": "eBook",
	"abi": [
		{
			"inputs": [],
			"stateMutability": "nonpayable",
			"type": "constructor"
		},
		{
			"inputs": [],
			"name": "chapterCount",
			"outputs": [
				{
					"internalType": "uint256",
					"name": "",
					"type": "uint256"
				}
			],
			"stateMutability": "view",
			"type": "function",
			"constant": true
		},
		{
			"inputs": [],
			"name": "coverImageHash",
			"outputs": [
				{
					"internalType": "string",
					"name": "",
					"type": "string"
				}
			],
			"stateMutability": "view",
			"type": "function",
			"constant": true
		},
		{
			"inputs": [
				{
					"internalType": "uint256",
					"name": "",
					"type": "uint256"
				}
			],
			"name": "getChapter",
			"outputs": [
				{
					"internalType": "uint256",
					"name": "chapterId",
					"type": "uint256"
				},
				{
					"internalType": "string",
					"name": "title",
					"type": "string"
				},
				{
					"internalType": "string",
					"name": "description",
					"type": "string"
				}
			],
			"stateMutability": "view",
			"type": "function",
			"constant": true
		},
		{
			"inputs": [
				{
					"internalType": "uint256",
					"name": "",
					"type": "uint256"
				}
			],
			"name": "getPage",
			"outputs": [
				{
					"internalType": "uint256",
					"name": "pageNumber",
					"type": "uint256"
				},
				{
					"internalType": "uint256",
					"name": "chapterId",
					"type": "uint256"
				},
				{
					"internalType": "string",
					"name": "content",
					"type": "string"
				}
			],
			"stateMutability": "view",
			"type": "function",
			"constant": true
		},
		{
			"inputs": [],
			"name": "legalDisclaimer",
			"outputs": [
				{
					"internalType": "string",
					"name": "",
					"type": "string"
				}
			],
			"stateMutability": "view",
			"type": "function",
			"constant": true
		},
		{
			"inputs": [],
			"name": "newestVersionHash",
			"outputs": [
				{
					"internalType": "string",
					"name": "",
					"type": "string"
				}
			],
			"stateMutability": "view",
			"type": "function",
			"constant": true
		},
		{
			"inputs": [],
			"name": "openingMessage",
			"outputs": [
				{
					"internalType": "string",
					"name": "",
					"type": "string"
				}
			],
			"stateMutability": "view",
			"type": "function",
			"constant": true
		},
		{
			"inputs": [],
			"name": "owner",
			"outputs": [
				{
					"internalType": "address payable",
					"name": "",
					"type": "address"
				}
			],
			"stateMutability": "view",
			"type": "function",
			"constant": true
		},
		{
			"inputs": [],
			"name": "pageCount",
			"outputs": [
				{
					"internalType": "uint256",
					"name": "",
					"type": "uint256"
				}
			],
			"stateMutability": "view",
			"type": "function",
			"constant": true
		},
		{
			"inputs": [],
			"name": "title",
			"outputs": [
				{
					"internalType": "string",
					"name": "",
					"type": "string"
				}
			],
			"stateMutability": "view",
			"type": "function",
			"constant": true
		},
		{
			"inputs": [
				{
					"internalType": "string",
					"name": "_disclaimer",
					"type": "string"
				}
			],
			"name": "setLegalDisclaimer",
			"outputs": [],
			"stateMutability": "nonpayable",
			"type": "function"
		},
		{
			"inputs": [
				{
					"internalType": "string",
					"name": "_imageHash",
					"type": "string"
				}
			],
			"name": "setCoverImageHash",
			"outputs": [],
			"stateMutability": "nonpayable",
			"type": "function"
		},
		{
			"inputs": [
				{
					"internalType": "string",
					"name": "_message",
					"type": "string"
				}
			],
			"name": "setOpeningMessage",
			"outputs": [],
			"stateMutability": "nonpayable",
			"type": "function"
		},
		{
			"inputs": [
				{
					"internalType": "string",
					"name": "_hash",
					"type": "string"
				}
			],
			"name": "setNewestVersionHash",
			"outputs": [],
			"stateMutability": "nonpayable",
			"type": "function"
		},
		{
			"inputs": [
				{
					"internalType": "uint256",
					"name": "_chapterId",
					"type": "uint256"
				},
				{
					"internalType": "string",
					"name": "_content",
					"type": "string"
				}
			],
			"name": "createPage",
			"outputs": [],
			"stateMutability": "nonpayable",
			"type": "function"
		},
		{
			"inputs": [
				{
					"internalType": "uint256",
					"name": "_pageNum",
					"type": "uint256"
				},
				{
					"internalType": "string",
					"name": "_content",
					"type": "string"
				}
			],
			"name": "editPage",
			"outputs": [],
			"stateMutability": "nonpayable",
			"type": "function"
		},
		{
			"inputs": [
				{
					"internalType": "string",
					"name": "_title",
					"type": "string"
				},
				{
					"internalType": "string",
					"name": "_description",
					"type": "string"
				}
			],
			"name": "createChapter",
			"outputs": [],
			"stateMutability": "nonpayable",
			"type": "function"
		},
		{
			"inputs": [
				{
					"internalType": "uint256[]",
					"name": "_pages",
					"type": "uint256[]"
				},
				{
					"internalType": "uint256",
					"name": "_chapterId",
					"type": "uint256"
				}
			],
			"name": "editChapterPages",
			"outputs": [],
			"stateMutability": "nonpayable",
			"type": "function"
		},
		{
			"inputs": [
				{
					"internalType": "uint256",
					"name": "_chapterId",
					"type": "uint256"
				}
			],
			"name": "fetchChapter",
			"outputs": [
				{
					"components": [
						{
							"internalType": "uint256",
							"name": "chapterId",
							"type": "uint256"
						},
						{
							"internalType": "uint256[]",
							"name": "pages",
							"type": "uint256[]"
						},
						{
							"internalType": "string",
							"name": "title",
							"type": "string"
						},
						{
							"internalType": "string",
							"name": "description",
							"type": "string"
						}
					],
					"internalType": "struct eBook.chapter",
					"name": "_chapter",
					"type": "tuple"
				}
			],
			"stateMutability": "view",
			"type": "function",
			"constant": true
		}
	],
	"bytecode": "0x60806040523480156200001157600080fd5b5073bca3320e93c54513a467bb517dc25f9eba15e7796000806101000a81548173ffffffffffffffffffffffffffffffffffffffff021916908373ffffffffffffffffffffffffffffffffffffffff1602179055506040518060400160405280601b81526020017f546865204461726b20536563726574206f662048756d616e697479000000000081525060039080519060200190620000b3929190620000ba565b50620001cf565b828054620000c8906200016a565b90600052602060002090601f016020900481019282620000ec576000855562000138565b82601f106200010757805160ff191683800117855562000138565b8280016001018555821562000138579182015b82811115620001375782518255916020019190600101906200011a565b5b5090506200014791906200014b565b5090565b5b80821115620001665760008160009055506001016200014c565b5090565b600060028204905060018216806200018357607f821691505b602082108114156200019a5762000199620001a0565b5b50919050565b7f4e487b7100000000000000000000000000000000000000000000000000000000600052602260045260246000fd5b611bdf80620001df6000396000f3fe608060405234801561001057600080fd5b50600436106101215760003560e01c80637e17f670116100ad578063a9d1225c11610071578063a9d1225c146102fc578063bbf62fa71461031a578063dca136ee14610336578063e750f52714610352578063ea6ca8b51461036e57610121565b80637e17f670146102545780638da5cb5b1461027057806397cd2afb1461028e57806399f7b567146102ac5780639eae582e146102de57610121565b80634a79d50c116100f45780634a79d50c146101ae578063565389cd146101cc57806362b728dc146101e857806364c38e601461020657806378826e741461023657610121565b80630e03d64314610126578063137a3c961461014257806332ff5b71146101745780634711d64814610190575b600080fd5b610140600480360381019061013b91906114cd565b61038a565b005b61015c6004803603810190610157919061158e565b6103fc565b60405161016b9392919061185c565b60405180910390f35b61018e600480360381019061018991906114cd565b6104ae565b005b610198610520565b6040516101a591906117b8565b60405180910390f35b6101b66105ae565b6040516101c391906117b8565b60405180910390f35b6101e660048036038101906101e191906114cd565b61063c565b005b6101f06106ae565b6040516101fd91906117b8565b60405180910390f35b610220600480360381019061021b919061158e565b61073c565b60405161022d91906117da565b60405180910390f35b61023e6108ef565b60405161024b91906117b8565b60405180910390f35b61026e600480360381019061026991906115bb565b61097d565b005b610278610af3565b604051610285919061179d565b60405180910390f35b610296610b17565b6040516102a391906117fc565b60405180910390f35b6102c660048036038101906102c1919061158e565b610b1d565b6040516102d593929190611817565b60405180910390f35b6102e6610c57565b6040516102f391906117b8565b60405180910390f35b610304610ce5565b60405161031191906117fc565b60405180910390f35b610334600480360381019061032f91906114cd565b610ceb565b005b610350600480360381019061034b91906115bb565b610d5d565b005b61036c60048036038101906103679190611471565b610e7c565b005b61038860048036038101906103839190611516565b610fdd565b005b60008054906101000a900473ffffffffffffffffffffffffffffffffffffffff1673ffffffffffffffffffffffffffffffffffffffff163373ffffffffffffffffffffffffffffffffffffffff16146103e257600080fd5b80600790805190602001906103f8929190611136565b5050565b600860205280600052604060002060009150905080600001549080600101549080600201805461042b90611a00565b80601f016020809104026020016040519081016040528092919081815260200182805461045790611a00565b80156104a45780601f10610479576101008083540402835291602001916104a4565b820191906000526020600020905b81548152906001019060200180831161048757829003601f168201915b5050505050905083565b60008054906101000a900473ffffffffffffffffffffffffffffffffffffffff1673ffffffffffffffffffffffffffffffffffffffff163373ffffffffffffffffffffffffffffffffffffffff161461050657600080fd5b806005908051906020019061051c929190611136565b5050565b6005805461052d90611a00565b80601f016020809104026020016040519081016040528092919081815260200182805461055990611a00565b80156105a65780601f1061057b576101008083540402835291602001916105a6565b820191906000526020600020905b81548152906001019060200180831161058957829003601f168201915b505050505081565b600380546105bb90611a00565b80601f01602080910402602001604051908101604052809291908181526020018280546105e790611a00565b80156106345780601f1061060957610100808354040283529160200191610634565b820191906000526020600020905b81548152906001019060200180831161061757829003601f168201915b505050505081565b60008054906101000a900473ffffffffffffffffffffffffffffffffffffffff1673ffffffffffffffffffffffffffffffffffffffff163373ffffffffffffffffffffffffffffffffffffffff161461069457600080fd5b80600490805190602001906106aa929190611136565b5050565b600780546106bb90611a00565b80601f01602080910402602001604051908101604052809291908181526020018280546106e790611a00565b80156107345780601f1061070957610100808354040283529160200191610734565b820191906000526020600020905b81548152906001019060200180831161071757829003601f168201915b505050505081565b6107446111bc565b6009600083815260200190815260200160002060405180608001604052908160008201548152602001600182018054806020026020016040519081016040528092919081815260200182805480156107bb57602002820191906000526020600020905b8154815260200190600101908083116107a7575b505050505081526020016002820180546107d490611a00565b80601f016020809104026020016040519081016040528092919081815260200182805461080090611a00565b801561084d5780601f106108225761010080835404028352916020019161084d565b820191906000526020600020905b81548152906001019060200180831161083057829003601f168201915b5050505050815260200160038201805461086690611a00565b80601f016020809104026020016040519081016040528092919081815260200182805461089290611a00565b80156108df5780601f106108b4576101008083540402835291602001916108df565b820191906000526020600020905b8154815290600101906020018083116108c257829003601f168201915b5050505050815250509050919050565b600680546108fc90611a00565b80601f016020809104026020016040519081016040528092919081815260200182805461092890611a00565b80156109755780601f1061094a57610100808354040283529160200191610975565b820191906000526020600020905b81548152906001019060200180831161095857829003601f168201915b505050505081565b60008054906101000a900473ffffffffffffffffffffffffffffffffffffffff1673ffffffffffffffffffffffffffffffffffffffff163373ffffffffffffffffffffffffffffffffffffffff16146109d557600080fd5b6000600860008481526020019081526020016000206040518060600160405290816000820154815260200160018201548152602001600282018054610a1990611a00565b80601f0160208091040260200160405190810160405280929190818152602001828054610a4590611a00565b8015610a925780601f10610a6757610100808354040283529160200191610a92565b820191906000526020600020905b815481529060010190602001808311610a7557829003601f168201915b5050505050815250509050818160400181905250806008600085815260200190815260200160002060008201518160000155602082015181600101556040820151816002019080519060200190610aea929190611136565b50905050505050565b60008054906101000a900473ffffffffffffffffffffffffffffffffffffffff1681565b60015481565b6009602052806000526040600020600091509050806000015490806002018054610b4690611a00565b80601f0160208091040260200160405190810160405280929190818152602001828054610b7290611a00565b8015610bbf5780601f10610b9457610100808354040283529160200191610bbf565b820191906000526020600020905b815481529060010190602001808311610ba257829003601f168201915b505050505090806003018054610bd490611a00565b80601f0160208091040260200160405190810160405280929190818152602001828054610c0090611a00565b8015610c4d5780601f10610c2257610100808354040283529160200191610c4d565b820191906000526020600020905b815481529060010190602001808311610c3057829003601f168201915b5050505050905083565b60048054610c6490611a00565b80601f0160208091040260200160405190810160405280929190818152602001828054610c9090611a00565b8015610cdd5780601f10610cb257610100808354040283529160200191610cdd565b820191906000526020600020905b815481529060010190602001808311610cc057829003601f168201915b505050505081565b60025481565b60008054906101000a900473ffffffffffffffffffffffffffffffffffffffff1673ffffffffffffffffffffffffffffffffffffffff163373ffffffffffffffffffffffffffffffffffffffff1614610d4357600080fd5b8060069080519060200190610d59929190611136565b5050565b60008054906101000a900473ffffffffffffffffffffffffffffffffffffffff1673ffffffffffffffffffffffffffffffffffffffff163373ffffffffffffffffffffffffffffffffffffffff1614610db557600080fd5b60016000815480929190610dc890611a63565b9190505550604051806060016040528060015481526020018381526020018281525060086000600154815260200190815260200160002060008201518160000155602082015181600101556040820151816002019080519060200190610e2f929190611136565b509050506000600960008481526020019081526020016000209050806001016001549080600181540180825580915050600190039060005260206000200160009091909190915055505050565b60008054906101000a900473ffffffffffffffffffffffffffffffffffffffff1673ffffffffffffffffffffffffffffffffffffffff163373ffffffffffffffffffffffffffffffffffffffff1614610ed457600080fd5b6000600960008381526020019081526020016000209050806001016000610efb91906111e4565b60005b8351811015610f5f5781600101848281518110610f1e57610f1d611b0a565b5b602002602001015190806001815401808255809150506001900390600052602060002001600090919091909150558080610f5790611a63565b915050610efe565b508060096000848152602001908152602001600020600082015481600001556001820181600101908054610f94929190611205565b506002820181600201908054610fa990611a00565b610fb4929190611257565b506003820181600301908054610fc990611a00565b610fd4929190611257565b50905050505050565b60008054906101000a900473ffffffffffffffffffffffffffffffffffffffff1673ffffffffffffffffffffffffffffffffffffffff163373ffffffffffffffffffffffffffffffffffffffff161461103557600080fd5b6002600081548092919061104890611a63565b919050555060405180608001604052806002548152602001600067ffffffffffffffff81111561107b5761107a611b39565b5b6040519080825280602002602001820160405280156110a95781602001602082028036833780820191505090505b508152602001838152602001828152506009600060025481526020019081526020016000206000820151816000015560208201518160010190805190602001906110f49291906112e4565b506040820151816002019080519060200190611111929190611136565b50606082015181600301908051906020019061112e929190611136565b509050505050565b82805461114290611a00565b90600052602060002090601f01602090048101928261116457600085556111ab565b82601f1061117d57805160ff19168380011785556111ab565b828001600101855582156111ab579182015b828111156111aa57825182559160200191906001019061118f565b5b5090506111b89190611331565b5090565b6040518060800160405280600081526020016060815260200160608152602001606081525090565b50805460008255906000526020600020908101906112029190611331565b50565b8280548282559060005260206000209081019282156112465760005260206000209182015b8281111561124557825482559160010191906001019061122a565b5b5090506112539190611331565b5090565b82805461126390611a00565b90600052602060002090601f01602090048101928261128557600085556112d3565b82601f1061129657805485556112d3565b828001600101855582156112d357600052602060002091601f016020900482015b828111156112d25782548255916001019190600101906112b7565b5b5090506112e09190611331565b5090565b828054828255906000526020600020908101928215611320579160200282015b8281111561131f578251825591602001919060010190611304565b5b50905061132d9190611331565b5090565b5b8082111561134a576000816000905550600101611332565b5090565b600061136161135c846118bf565b61189a565b9050808382526020820190508285602086028201111561138457611383611b6d565b5b60005b858110156113b4578161139a888261145c565b845260208401935060208301925050600181019050611387565b5050509392505050565b60006113d16113cc846118eb565b61189a565b9050828152602081018484840111156113ed576113ec611b72565b5b6113f88482856119be565b509392505050565b600082601f83011261141557611414611b68565b5b813561142584826020860161134e565b91505092915050565b600082601f83011261144357611442611b68565b5b81356114538482602086016113be565b91505092915050565b60008135905061146b81611b92565b92915050565b6000806040838503121561148857611487611b7c565b5b600083013567ffffffffffffffff8111156114a6576114a5611b77565b5b6114b285828601611400565b92505060206114c38582860161145c565b9150509250929050565b6000602082840312156114e3576114e2611b7c565b5b600082013567ffffffffffffffff81111561150157611500611b77565b5b61150d8482850161142e565b91505092915050565b6000806040838503121561152d5761152c611b7c565b5b600083013567ffffffffffffffff81111561154b5761154a611b77565b5b6115578582860161142e565b925050602083013567ffffffffffffffff81111561157857611577611b77565b5b6115848582860161142e565b9150509250929050565b6000602082840312156115a4576115a3611b7c565b5b60006115b28482850161145c565b91505092915050565b600080604083850312156115d2576115d1611b7c565b5b60006115e08582860161145c565b925050602083013567ffffffffffffffff81111561160157611600611b77565b5b61160d8582860161142e565b9150509250929050565b6000611623838361177f565b60208301905092915050565b61163881611982565b82525050565b60006116498261192c565b611653818561194f565b935061165e8361191c565b8060005b8381101561168f5781516116768882611617565b975061168183611942565b925050600181019050611662565b5085935050505092915050565b60006116a782611937565b6116b18185611960565b93506116c18185602086016119cd565b6116ca81611b81565b840191505092915050565b60006116e082611937565b6116ea8185611971565b93506116fa8185602086016119cd565b61170381611b81565b840191505092915050565b6000608083016000830151611726600086018261177f565b506020830151848203602086015261173e828261163e565b91505060408301518482036040860152611758828261169c565b91505060608301518482036060860152611772828261169c565b9150508091505092915050565b611788816119b4565b82525050565b611797816119b4565b82525050565b60006020820190506117b2600083018461162f565b92915050565b600060208201905081810360008301526117d281846116d5565b905092915050565b600060208201905081810360008301526117f4818461170e565b905092915050565b6000602082019050611811600083018461178e565b92915050565b600060608201905061182c600083018661178e565b818103602083015261183e81856116d5565b9050818103604083015261185281846116d5565b9050949350505050565b6000606082019050611871600083018661178e565b61187e602083018561178e565b818103604083015261189081846116d5565b9050949350505050565b60006118a46118b5565b90506118b08282611a32565b919050565b6000604051905090565b600067ffffffffffffffff8211156118da576118d9611b39565b5b602082029050602081019050919050565b600067ffffffffffffffff82111561190657611905611b39565b5b61190f82611b81565b9050602081019050919050565b6000819050602082019050919050565b600081519050919050565b600081519050919050565b6000602082019050919050565b600082825260208201905092915050565b600082825260208201905092915050565b600082825260208201905092915050565b600061198d82611994565b9050919050565b600073ffffffffffffffffffffffffffffffffffffffff82169050919050565b6000819050919050565b82818337600083830152505050565b60005b838110156119eb5780820151818401526020810190506119d0565b838111156119fa576000848401525b50505050565b60006002820490506001821680611a1857607f821691505b60208210811415611a2c57611a2b611adb565b5b50919050565b611a3b82611b81565b810181811067ffffffffffffffff82111715611a5a57611a59611b39565b5b80604052505050565b6000611a6e826119b4565b91507fffffffffffffffffffffffffffffffffffffffffffffffffffffffffffffffff821415611aa157611aa0611aac565b5b600182019050919050565b7f4e487b7100000000000000000000000000000000000000000000000000000000600052601160045260246000fd5b7f4e487b7100000000000000000000000000000000000000000000000000000000600052602260045260246000fd5b7f4e487b7100000000000000000000000000000000000000000000000000000000600052603260045260246000fd5b7f4e487b7100000000000000000000000000000000000000000000000000000000600052604160045260246000fd5b600080fd5b600080fd5b600080fd5b600080fd5b600080fd5b6000601f19601f8301169050919050565b611b9b816119b4565b8114611ba657600080fd5b5056fea26469706673582212207250d5b9f90b68107ad91f9149d2c55e0698d5ed832b08c6fc29e78e8240c9ae64736f6c63430008060033",
	"immutableReferences": {},
	"source": "//SPDX-License-Identifier: MIT\npragma solidity >=0.7.0 <0.9.0;\n\ncontract eBook {\n    \n    address payable public owner;\n    uint public pageCount;\n    uint public chapterCount;\n    string public title;\n    string public legalDisclaimer;\n    string public openingMessage;\n    string public newestVersionHash;\n    string public coverImageHash;\n\n    struct page {\n        uint pageNumber;\n        uint chapterId;\n        string content;\n    }\n    \n    struct chapter {\n        uint chapterId;\n        uint[] pages;\n        string title;\n        string description;\n    }\n    \n    mapping(uint => page) public getPage;\n    mapping(uint => chapter) public getChapter;\n\n    constructor() {\n        owner = payable(0xBcA3320e93C54513A467Bb517dC25f9Eba15e779);\n        title = \"The Dark Secret of Humanity\";\n    }\n    \n    function setLegalDisclaimer(string memory _disclaimer) public {\n        require(msg.sender == owner);\n        \n        legalDisclaimer = _disclaimer;\n    }\n\n    function setCoverImageHash(string memory _imageHash) public {\n        require(msg.sender == owner);\n\n        coverImageHash = _imageHash;\n    }\n    \n    function setOpeningMessage(string memory _message) public {\n        require(msg.sender == owner);\n        \n        openingMessage = _message;\n    }\n    \n    function setNewestVersionHash(string memory _hash) public {\n        require(msg.sender == owner);\n        \n        newestVersionHash = _hash;\n    }\n    \n    \n    function createPage(uint _chapterId, string memory _content) public {\n        \n        require(msg.sender == owner);\n        \n        pageCount++;\n        getPage[pageCount] = page(pageCount, _chapterId, _content);\n        \n        chapter storage _chapter = getChapter[_chapterId];\n        _chapter.pages.push(pageCount);\n\n    }\n    \n    function editPage(uint _pageNum, string memory _content) public {\n        \n        require(msg.sender == owner);\n        \n        page memory _page = getPage[_pageNum];\n        _page.content = _content;\n        getPage[_pageNum] = _page;\n        \n    }\n    \n    function createChapter(string memory _title, string memory _description) public {\n        \n        require(msg.sender == owner);\n        \n        chapterCount++;\n        getChapter[chapterCount] = chapter(chapterCount, new uint[](0), _title, _description);\n    }\n    \n    function editChapterPages(uint[] memory _pages, uint _chapterId) public {\n        \n        require(msg.sender == owner);\n        \n        chapter storage _chapter = getChapter[_chapterId];\n        delete _chapter.pages;\n        for(uint i = 0; i < _pages.length; i++) {\n            _chapter.pages.push(_pages[i]);\n        }\n        \n        getChapter[_chapterId] = _chapter;\n    }\n    \n    function transferOwnership(address payable _newOwner) private {\n        \n        owner = _newOwner;\n    }\n    \n    function fetchChapter(uint _chapterId) public view returns (chapter memory _chapter) {\n        _chapter = getChapter[_chapterId];\n    }\n    \n}",
	"sourcePath": "/home/aely/social-network/src/contracts/eBook.sol",
	"compiler": {
		"name": "solc",
		"version": "0.8.6+commit.11564f7e.Emscripten.clang"
	},
	"schemaVersion": "3.4.0",
	"updatedAt": "2021-08-12T20:12:57.931Z",
	"networkType": "ethereum",
	"devdoc": {
		"kind": "dev",
		"methods": {},
		"version": 1
	},
	"userdoc": {
		"kind": "user",
		"methods": {},
		"version": 1
	}
}