{
	"contractName": "eBook",
	"abi": [
		{
			"inputs": [],
			"stateMutability": "nonpayable",
			"type": "constructor"
		},
		{
			"inputs": [],
			"name": "chapterCount",
			"outputs": [
				{
					"internalType": "uint256",
					"name": "",
					"type": "uint256"
				}
			],
			"stateMutability": "view",
			"type": "function",
			"constant": true
		},
		{
			"inputs": [],
			"name": "coverImageHash",
			"outputs": [
				{
					"internalType": "string",
					"name": "",
					"type": "string"
				}
			],
			"stateMutability": "view",
			"type": "function",
			"constant": true
		},
		{
			"inputs": [
				{
					"internalType": "uint256",
					"name": "",
					"type": "uint256"
				}
			],
			"name": "getChapter",
			"outputs": [
				{
					"internalType": "uint256",
					"name": "chapterId",
					"type": "uint256"
				},
				{
					"internalType": "string",
					"name": "title",
					"type": "string"
				},
				{
					"internalType": "string",
					"name": "description",
					"type": "string"
				}
			],
			"stateMutability": "view",
			"type": "function",
			"constant": true
		},
		{
			"inputs": [
				{
					"internalType": "uint256",
					"name": "",
					"type": "uint256"
				}
			],
			"name": "getPage",
			"outputs": [
				{
					"internalType": "uint256",
					"name": "pageNumber",
					"type": "uint256"
				},
				{
					"internalType": "uint256",
					"name": "chapterId",
					"type": "uint256"
				},
				{
					"internalType": "string",
					"name": "content",
					"type": "string"
				}
			],
			"stateMutability": "view",
			"type": "function",
			"constant": true
		},
		{
			"inputs": [],
			"name": "legalDisclaimer",
			"outputs": [
				{
					"internalType": "string",
					"name": "",
					"type": "string"
				}
			],
			"stateMutability": "view",
			"type": "function",
			"constant": true
		},
		{
			"inputs": [],
			"name": "newestVersionHash",
			"outputs": [
				{
					"internalType": "string",
					"name": "",
					"type": "string"
				}
			],
			"stateMutability": "view",
			"type": "function",
			"constant": true
		},
		{
			"inputs": [],
			"name": "openingMessage",
			"outputs": [
				{
					"internalType": "string",
					"name": "",
					"type": "string"
				}
			],
			"stateMutability": "view",
			"type": "function",
			"constant": true
		},
		{
			"inputs": [],
			"name": "owner",
			"outputs": [
				{
					"internalType": "address payable",
					"name": "",
					"type": "address"
				}
			],
			"stateMutability": "view",
			"type": "function",
			"constant": true
		},
		{
			"inputs": [],
			"name": "pageCount",
			"outputs": [
				{
					"internalType": "uint256",
					"name": "",
					"type": "uint256"
				}
			],
			"stateMutability": "view",
			"type": "function",
			"constant": true
		},
		{
			"inputs": [],
			"name": "title",
			"outputs": [
				{
					"internalType": "string",
					"name": "",
					"type": "string"
				}
			],
			"stateMutability": "view",
			"type": "function",
			"constant": true
		},
		{
			"inputs": [
				{
					"internalType": "string",
					"name": "_disclaimer",
					"type": "string"
				}
			],
			"name": "setLegalDisclaimer",
			"outputs": [],
			"stateMutability": "nonpayable",
			"type": "function"
		},
		{
			"inputs": [
				{
					"internalType": "string",
					"name": "_imageHash",
					"type": "string"
				}
			],
			"name": "setCoverImageHash",
			"outputs": [],
			"stateMutability": "nonpayable",
			"type": "function"
		},
		{
			"inputs": [
				{
					"internalType": "string",
					"name": "_message",
					"type": "string"
				}
			],
			"name": "setOpeningMessage",
			"outputs": [],
			"stateMutability": "nonpayable",
			"type": "function"
		},
		{
			"inputs": [
				{
					"internalType": "string",
					"name": "_hash",
					"type": "string"
				}
			],
			"name": "setNewestVersionHash",
			"outputs": [],
			"stateMutability": "nonpayable",
			"type": "function"
		},
		{
			"inputs": [
				{
					"internalType": "uint256",
					"name": "_chapterId",
					"type": "uint256"
				},
				{
					"internalType": "string",
					"name": "_content",
					"type": "string"
				}
			],
			"name": "createPage",
			"outputs": [],
			"stateMutability": "nonpayable",
			"type": "function"
		},
		{
			"inputs": [
				{
					"internalType": "uint256",
					"name": "_pageNum",
					"type": "uint256"
				},
				{
					"internalType": "string",
					"name": "_content",
					"type": "string"
				}
			],
			"name": "editPage",
			"outputs": [],
			"stateMutability": "nonpayable",
			"type": "function"
		},
		{
			"inputs": [
				{
					"internalType": "string",
					"name": "_title",
					"type": "string"
				},
				{
					"internalType": "string",
					"name": "_description",
					"type": "string"
				}
			],
			"name": "createChapter",
			"outputs": [],
			"stateMutability": "nonpayable",
			"type": "function"
		},
		{
			"inputs": [
				{
					"internalType": "uint256[]",
					"name": "_pages",
					"type": "uint256[]"
				},
				{
					"internalType": "uint256",
					"name": "_chapterId",
					"type": "uint256"
				}
			],
			"name": "editChapterPages",
			"outputs": [],
			"stateMutability": "nonpayable",
			"type": "function"
		},
		{
			"inputs": [
				{
					"internalType": "address payable",
					"name": "_newOwner",
					"type": "address"
				}
			],
			"name": "transferOwnership",
			"outputs": [],
			"stateMutability": "nonpayable",
			"type": "function"
		},
		{
			"inputs": [
				{
					"internalType": "uint256",
					"name": "_chapterId",
					"type": "uint256"
				}
			],
			"name": "fetchChapter",
			"outputs": [
				{
					"components": [
						{
							"internalType": "uint256",
							"name": "chapterId",
							"type": "uint256"
						},
						{
							"internalType": "uint256[]",
							"name": "pages",
							"type": "uint256[]"
						},
						{
							"internalType": "string",
							"name": "title",
							"type": "string"
						},
						{
							"internalType": "string",
							"name": "description",
							"type": "string"
						}
					],
					"internalType": "struct eBook.chapter",
					"name": "_chapter",
					"type": "tuple"
				}
			],
			"stateMutability": "view",
			"type": "function",
			"constant": true
		}
	],
	"bytecode": "0x60806040523480156200001157600080fd5b5073bca3320e93c54513a467bb517dc25f9eba15e7796000806101000a81548173ffffffffffffffffffffffffffffffffffffffff021916908373ffffffffffffffffffffffffffffffffffffffff16021790555060405180608001604052806051815260200162001d666051913960039080519060200190620000979291906200009e565b50620001b3565b828054620000ac906200014e565b90600052602060002090601f016020900481019282620000d057600085556200011c565b82601f10620000eb57805160ff19168380011785556200011c565b828001600101855582156200011c579182015b828111156200011b578251825591602001919060010190620000fe565b5b5090506200012b91906200012f565b5090565b5b808211156200014a57600081600090555060010162000130565b5090565b600060028204905060018216806200016757607f821691505b602082108114156200017e576200017d62000184565b5b50919050565b7f4e487b7100000000000000000000000000000000000000000000000000000000600052602260045260246000fd5b611ba380620001c36000396000f3fe608060405234801561001057600080fd5b506004361061012c5760003560e01c80638da5cb5b116100ad578063bbf62fa711610071578063bbf62fa714610325578063dca136ee14610341578063e750f5271461035d578063ea6ca8b514610379578063f2fde38b146103955761012c565b80638da5cb5b1461027b57806397cd2afb1461029957806399f7b567146102b75780639eae582e146102e9578063a9d1225c146103075761012c565b8063565389cd116100f4578063565389cd146101d757806362b728dc146101f357806364c38e601461021157806378826e74146102415780637e17f6701461025f5761012c565b80630e03d64314610131578063137a3c961461014d57806332ff5b711461017f5780634711d6481461019b5780634a79d50c146101b9575b600080fd5b61014b6004803603810190610146919061147a565b6103b1565b005b6101676004803603810190610162919061153b565b610423565b60405161017693929190611809565b60405180910390f35b6101996004803603810190610194919061147a565b6104d5565b005b6101a3610547565b6040516101b09190611765565b60405180910390f35b6101c16105d5565b6040516101ce9190611765565b60405180910390f35b6101f160048036038101906101ec919061147a565b610663565b005b6101fb6106d5565b6040516102089190611765565b60405180910390f35b61022b6004803603810190610226919061153b565b610763565b6040516102389190611787565b60405180910390f35b610249610916565b6040516102569190611765565b60405180910390f35b61027960048036038101906102749190611568565b6109a4565b005b610283610b1a565b604051610290919061174a565b60405180910390f35b6102a1610b3e565b6040516102ae91906117a9565b60405180910390f35b6102d160048036038101906102cc919061153b565b610b44565b6040516102e0939291906117c4565b60405180910390f35b6102f1610c7e565b6040516102fe9190611765565b60405180910390f35b61030f610d0c565b60405161031c91906117a9565b60405180910390f35b61033f600480360381019061033a919061147a565b610d12565b005b61035b60048036038101906103569190611568565b610d84565b005b6103776004803603810190610372919061141e565b610ea3565b005b610393600480360381019061038e91906114c3565b610f8c565b005b6103af60048036038101906103aa91906113f1565b6110e5565b005b60008054906101000a900473ffffffffffffffffffffffffffffffffffffffff1673ffffffffffffffffffffffffffffffffffffffff163373ffffffffffffffffffffffffffffffffffffffff161461040957600080fd5b806007908051906020019061041f929190611180565b5050565b6008602052806000526040600020600091509050806000015490806001015490806002018054610452906119ad565b80601f016020809104026020016040519081016040528092919081815260200182805461047e906119ad565b80156104cb5780601f106104a0576101008083540402835291602001916104cb565b820191906000526020600020905b8154815290600101906020018083116104ae57829003601f168201915b5050505050905083565b60008054906101000a900473ffffffffffffffffffffffffffffffffffffffff1673ffffffffffffffffffffffffffffffffffffffff163373ffffffffffffffffffffffffffffffffffffffff161461052d57600080fd5b8060059080519060200190610543929190611180565b5050565b60058054610554906119ad565b80601f0160208091040260200160405190810160405280929190818152602001828054610580906119ad565b80156105cd5780601f106105a2576101008083540402835291602001916105cd565b820191906000526020600020905b8154815290600101906020018083116105b057829003601f168201915b505050505081565b600380546105e2906119ad565b80601f016020809104026020016040519081016040528092919081815260200182805461060e906119ad565b801561065b5780601f106106305761010080835404028352916020019161065b565b820191906000526020600020905b81548152906001019060200180831161063e57829003601f168201915b505050505081565b60008054906101000a900473ffffffffffffffffffffffffffffffffffffffff1673ffffffffffffffffffffffffffffffffffffffff163373ffffffffffffffffffffffffffffffffffffffff16146106bb57600080fd5b80600490805190602001906106d1929190611180565b5050565b600780546106e2906119ad565b80601f016020809104026020016040519081016040528092919081815260200182805461070e906119ad565b801561075b5780601f106107305761010080835404028352916020019161075b565b820191906000526020600020905b81548152906001019060200180831161073e57829003601f168201915b505050505081565b61076b611206565b6009600083815260200190815260200160002060405180608001604052908160008201548152602001600182018054806020026020016040519081016040528092919081815260200182805480156107e257602002820191906000526020600020905b8154815260200190600101908083116107ce575b505050505081526020016002820180546107fb906119ad565b80601f0160208091040260200160405190810160405280929190818152602001828054610827906119ad565b80156108745780601f1061084957610100808354040283529160200191610874565b820191906000526020600020905b81548152906001019060200180831161085757829003601f168201915b5050505050815260200160038201805461088d906119ad565b80601f01602080910402602001604051908101604052809291908181526020018280546108b9906119ad565b80156109065780601f106108db57610100808354040283529160200191610906565b820191906000526020600020905b8154815290600101906020018083116108e957829003601f168201915b5050505050815250509050919050565b60068054610923906119ad565b80601f016020809104026020016040519081016040528092919081815260200182805461094f906119ad565b801561099c5780601f106109715761010080835404028352916020019161099c565b820191906000526020600020905b81548152906001019060200180831161097f57829003601f168201915b505050505081565b60008054906101000a900473ffffffffffffffffffffffffffffffffffffffff1673ffffffffffffffffffffffffffffffffffffffff163373ffffffffffffffffffffffffffffffffffffffff16146109fc57600080fd5b6000600860008481526020019081526020016000206040518060600160405290816000820154815260200160018201548152602001600282018054610a40906119ad565b80601f0160208091040260200160405190810160405280929190818152602001828054610a6c906119ad565b8015610ab95780601f10610a8e57610100808354040283529160200191610ab9565b820191906000526020600020905b815481529060010190602001808311610a9c57829003601f168201915b5050505050815250509050818160400181905250806008600085815260200190815260200160002060008201518160000155602082015181600101556040820151816002019080519060200190610b11929190611180565b50905050505050565b60008054906101000a900473ffffffffffffffffffffffffffffffffffffffff1681565b60015481565b6009602052806000526040600020600091509050806000015490806002018054610b6d906119ad565b80601f0160208091040260200160405190810160405280929190818152602001828054610b99906119ad565b8015610be65780601f10610bbb57610100808354040283529160200191610be6565b820191906000526020600020905b815481529060010190602001808311610bc957829003601f168201915b505050505090806003018054610bfb906119ad565b80601f0160208091040260200160405190810160405280929190818152602001828054610c27906119ad565b8015610c745780601f10610c4957610100808354040283529160200191610c74565b820191906000526020600020905b815481529060010190602001808311610c5757829003601f168201915b5050505050905083565b60048054610c8b906119ad565b80601f0160208091040260200160405190810160405280929190818152602001828054610cb7906119ad565b8015610d045780601f10610cd957610100808354040283529160200191610d04565b820191906000526020600020905b815481529060010190602001808311610ce757829003601f168201915b505050505081565b60025481565b60008054906101000a900473ffffffffffffffffffffffffffffffffffffffff1673ffffffffffffffffffffffffffffffffffffffff163373ffffffffffffffffffffffffffffffffffffffff1614610d6a57600080fd5b8060069080519060200190610d80929190611180565b5050565b60008054906101000a900473ffffffffffffffffffffffffffffffffffffffff1673ffffffffffffffffffffffffffffffffffffffff163373ffffffffffffffffffffffffffffffffffffffff1614610ddc57600080fd5b60016000815480929190610def90611a10565b9190505550604051806060016040528060015481526020018381526020018281525060086000600154815260200190815260200160002060008201518160000155602082015181600101556040820151816002019080519060200190610e56929190611180565b509050506000600960008481526020019081526020016000209050806001016001549080600181540180825580915050600190039060005260206000200160009091909190915055505050565b60008054906101000a900473ffffffffffffffffffffffffffffffffffffffff1673ffffffffffffffffffffffffffffffffffffffff163373ffffffffffffffffffffffffffffffffffffffff1614610efb57600080fd5b6000600960008381526020019081526020016000209050806001016000610f22919061122e565b60005b8351811015610f865781600101848281518110610f4557610f44611ab7565b5b602002602001015190806001815401808255809150506001900390600052602060002001600090919091909150558080610f7e90611a10565b915050610f25565b50505050565b60008054906101000a900473ffffffffffffffffffffffffffffffffffffffff1673ffffffffffffffffffffffffffffffffffffffff163373ffffffffffffffffffffffffffffffffffffffff1614610fe457600080fd5b60026000815480929190610ff790611a10565b919050555060405180608001604052806002548152602001600067ffffffffffffffff81111561102a57611029611ae6565b5b6040519080825280602002602001820160405280156110585781602001602082028036833780820191505090505b508152602001838152602001828152506009600060025481526020019081526020016000206000820151816000015560208201518160010190805190602001906110a392919061124f565b5060408201518160020190805190602001906110c0929190611180565b5060608201518160030190805190602001906110dd929190611180565b509050505050565b60008054906101000a900473ffffffffffffffffffffffffffffffffffffffff1673ffffffffffffffffffffffffffffffffffffffff163373ffffffffffffffffffffffffffffffffffffffff161461113d57600080fd5b806000806101000a81548173ffffffffffffffffffffffffffffffffffffffff021916908373ffffffffffffffffffffffffffffffffffffffff16021790555050565b82805461118c906119ad565b90600052602060002090601f0160209004810192826111ae57600085556111f5565b82601f106111c757805160ff19168380011785556111f5565b828001600101855582156111f5579182015b828111156111f45782518255916020019190600101906111d9565b5b509050611202919061129c565b5090565b6040518060800160405280600081526020016060815260200160608152602001606081525090565b508054600082559060005260206000209081019061124c919061129c565b50565b82805482825590600052602060002090810192821561128b579160200282015b8281111561128a57825182559160200191906001019061126f565b5b509050611298919061129c565b5090565b5b808211156112b557600081600090555060010161129d565b5090565b60006112cc6112c78461186c565b611847565b905080838252602082019050828560208602820111156112ef576112ee611b1a565b5b60005b8581101561131f578161130588826113dc565b8452602084019350602083019250506001810190506112f2565b5050509392505050565b600061133c61133784611898565b611847565b90508281526020810184848401111561135857611357611b1f565b5b61136384828561196b565b509392505050565b60008135905061137a81611b3f565b92915050565b600082601f83011261139557611394611b15565b5b81356113a58482602086016112b9565b91505092915050565b600082601f8301126113c3576113c2611b15565b5b81356113d3848260208601611329565b91505092915050565b6000813590506113eb81611b56565b92915050565b60006020828403121561140757611406611b29565b5b60006114158482850161136b565b91505092915050565b6000806040838503121561143557611434611b29565b5b600083013567ffffffffffffffff81111561145357611452611b24565b5b61145f85828601611380565b9250506020611470858286016113dc565b9150509250929050565b6000602082840312156114905761148f611b29565b5b600082013567ffffffffffffffff8111156114ae576114ad611b24565b5b6114ba848285016113ae565b91505092915050565b600080604083850312156114da576114d9611b29565b5b600083013567ffffffffffffffff8111156114f8576114f7611b24565b5b611504858286016113ae565b925050602083013567ffffffffffffffff81111561152557611524611b24565b5b611531858286016113ae565b9150509250929050565b60006020828403121561155157611550611b29565b5b600061155f848285016113dc565b91505092915050565b6000806040838503121561157f5761157e611b29565b5b600061158d858286016113dc565b925050602083013567ffffffffffffffff8111156115ae576115ad611b24565b5b6115ba858286016113ae565b9150509250929050565b60006115d0838361172c565b60208301905092915050565b6115e58161192f565b82525050565b60006115f6826118d9565b61160081856118fc565b935061160b836118c9565b8060005b8381101561163c57815161162388826115c4565b975061162e836118ef565b92505060018101905061160f565b5085935050505092915050565b6000611654826118e4565b61165e818561190d565b935061166e81856020860161197a565b61167781611b2e565b840191505092915050565b600061168d826118e4565b611697818561191e565b93506116a781856020860161197a565b6116b081611b2e565b840191505092915050565b60006080830160008301516116d3600086018261172c565b50602083015184820360208601526116eb82826115eb565b915050604083015184820360408601526117058282611649565b9150506060830151848203606086015261171f8282611649565b9150508091505092915050565b61173581611961565b82525050565b61174481611961565b82525050565b600060208201905061175f60008301846115dc565b92915050565b6000602082019050818103600083015261177f8184611682565b905092915050565b600060208201905081810360008301526117a181846116bb565b905092915050565b60006020820190506117be600083018461173b565b92915050565b60006060820190506117d9600083018661173b565b81810360208301526117eb8185611682565b905081810360408301526117ff8184611682565b9050949350505050565b600060608201905061181e600083018661173b565b61182b602083018561173b565b818103604083015261183d8184611682565b9050949350505050565b6000611851611862565b905061185d82826119df565b919050565b6000604051905090565b600067ffffffffffffffff82111561188757611886611ae6565b5b602082029050602081019050919050565b600067ffffffffffffffff8211156118b3576118b2611ae6565b5b6118bc82611b2e565b9050602081019050919050565b6000819050602082019050919050565b600081519050919050565b600081519050919050565b6000602082019050919050565b600082825260208201905092915050565b600082825260208201905092915050565b600082825260208201905092915050565b600061193a82611941565b9050919050565b600073ffffffffffffffffffffffffffffffffffffffff82169050919050565b6000819050919050565b82818337600083830152505050565b60005b8381101561199857808201518184015260208101905061197d565b838111156119a7576000848401525b50505050565b600060028204905060018216806119c557607f821691505b602082108114156119d9576119d8611a88565b5b50919050565b6119e882611b2e565b810181811067ffffffffffffffff82111715611a0757611a06611ae6565b5b80604052505050565b6000611a1b82611961565b91507fffffffffffffffffffffffffffffffffffffffffffffffffffffffffffffffff821415611a4e57611a4d611a59565b5b600182019050919050565b7f4e487b7100000000000000000000000000000000000000000000000000000000600052601160045260246000fd5b7f4e487b7100000000000000000000000000000000000000000000000000000000600052602260045260246000fd5b7f4e487b7100000000000000000000000000000000000000000000000000000000600052603260045260246000fd5b7f4e487b7100000000000000000000000000000000000000000000000000000000600052604160045260246000fd5b600080fd5b600080fd5b600080fd5b600080fd5b600080fd5b6000601f19601f8301169050919050565b611b488161192f565b8114611b5357600080fd5b50565b611b5f81611961565b8114611b6a57600080fd5b5056fea2646970667358221220b48e02345ad2b39028951cea59b0886041984e215875eca3842b5c38c889185864736f6c634300080600335468652042696e64696e6720536563726574206f662074686520496c6c756d696e6174693a20416e204163636f756e742066726f6d2061205472616e73666f726d656420466f726d65722056696374696d",
	"immutableReferences": {},
	"source": "//SPDX-License-Identifier: MIT\npragma solidity >=0.7.0 <0.9.0;\n\ncontract eBook {\n    \n    address payable public owner;\n    uint public pageCount;\n    uint public chapterCount;\n    string public title;\n    string public legalDisclaimer;\n    string public openingMessage;\n    string public newestVersionHash;\n    string public coverImageHash;\n\n    struct page {\n        uint pageNumber;\n        uint chapterId;\n        string content;\n    }\n    \n    struct chapter {\n        uint chapterId;\n        uint[] pages;\n        string title;\n        string description;\n    }\n    \n    mapping(uint => page) public getPage;\n    mapping(uint => chapter) public getChapter;\n\n    constructor() {\n        owner = payable(0xBcA3320e93C54513A467Bb517dC25f9Eba15e779);\n        title = \"The Binding Secret of the Illuminati: An Account from a Transformed Former Victim\";\n    }\n    \n    function setLegalDisclaimer(string memory _disclaimer) public {\n        require(msg.sender == owner);\n        \n        legalDisclaimer = _disclaimer;\n    }\n\n    function setCoverImageHash(string memory _imageHash) public {\n        require(msg.sender == owner);\n\n        coverImageHash = _imageHash;\n    }\n    \n    function setOpeningMessage(string memory _message) public {\n        require(msg.sender == owner);\n        \n        openingMessage = _message;\n    }\n    \n    function setNewestVersionHash(string memory _hash) public {\n        require(msg.sender == owner);\n        \n        newestVersionHash = _hash;\n    }\n    \n    \n    function createPage(uint _chapterId, string memory _content) public {\n        \n        require(msg.sender == owner);\n        \n        pageCount++;\n        getPage[pageCount] = page(pageCount, _chapterId, _content);\n        \n        chapter storage _chapter = getChapter[_chapterId];\n        _chapter.pages.push(pageCount);\n\n    }\n    \n    function editPage(uint _pageNum, string memory _content) public {\n        \n        require(msg.sender == owner);\n        \n        page memory _page = getPage[_pageNum];\n        _page.content = _content;\n        getPage[_pageNum] = _page;\n        \n    }\n    \n    function createChapter(string memory _title, string memory _description) public {\n        \n        require(msg.sender == owner);\n        \n        chapterCount++;\n        getChapter[chapterCount] = chapter(chapterCount, new uint[](0), _title, _description);\n    }\n    \n    function editChapterPages(uint[] memory _pages, uint _chapterId) public {\n        \n        require(msg.sender == owner);\n        \n        chapter storage _chapter = getChapter[_chapterId];\n        delete _chapter.pages;\n        for(uint i = 0; i < _pages.length; i++) {\n            _chapter.pages.push(_pages[i]);\n        }\n    }\n    \n    function transferOwnership(address payable _newOwner) public {\n        \n        require(msg.sender == owner);\n        owner = _newOwner;\n    }\n\n    function fetchChapter(uint _chapterId) public view returns (chapter memory _chapter) {\n        _chapter = getChapter[_chapterId];\n    }\n    \n}",
	"sourcePath": "/home/aely/social-network/src/contracts/eBook.sol",
	"compiler": {
		"name": "solc",
		"version": "0.8.6+commit.11564f7e.Emscripten.clang"
	},
	"schemaVersion": "3.4.0",
	"updatedAt": "2021-07-09T13:53:05.463Z",
	"networkType": "ethereum",
	"devdoc": {
		"kind": "dev",
		"methods": {},
		"version": 1
	},
	"userdoc": {
		"kind": "user",
		"methods": {},
		"version": 1
	}
}